S00F000061726475696E6F2E7372656323
S11300000C9483000C94AB000C94AB000C94AB00E8
S11300100C94AB000C94AB000C94AB000C94AB00B0
S11300200C94AB000C94AB000C94AB000C94AB00A0
S11300300C94AB000C94AB000C94AB000C94AB0090
S11300400C9414060C94AB000C94C9080C94FB0893
S11300500C94AB000C94AB000C94AB000C94AB0070
S11300600C94AB000C94AB004203DB024603DE02AB
S1130070E102E402E802EB02EE02F102F402F7020A
S1130080FA02FD020003040307030A034A031803E8
S11300901B0340031E0340032203250329034003DB
S11300A040032C033003330337033A0340033D0377
S11300B00000000800020100000304070000000023
S11300C0000000000102040810204080010204081E
S11300D0102001020408102004040404040404048D
S11300E002020202020203030303030300000000EE
S11300F0250028002B0000000000240027002A000F
S1130100BE01E2052B0911241FBECFEFD8E0DEBFEC
S1130110CDBF13E0A0E0B1E0E2E3FAE102C0059054
S11301200D92A436B107D9F724E0A4E6B3E001C0E8
S11301301D92AF32B207E1F710E0C3E8D0E004C08B
S11301402197FE010E94110DC038D107C9F70E9402
S1130150B4010C94170D0C940E0C00002F923F92D6
S11301604F925F926F927F928F929F92AF92BF92C3
S1130170CF92DF92EF92FF920F931F93CF93DF936F
S1130180E42FF52F419050804F925F92E42FF52F8A
S11301904DB65EB6419250820C94CE00E62FF72FF6
S11301A0419050804DBE5EBE5F904F90E62FF72F7A
S11301B041925082DF91CF911F910F91FF90EF9068
S11301C0DF90CF90BF90AF909F908F907F906F9073
S11301D05F904F903F902F900C94AC0AE62FF72F2E
S11301E0419150814DBF5EBF0C94AD0A2F923F9256
S11301F04F925F926F927F928F929F92AF92BF9233
S1130200CF92DF92EF92FF920F931F93CF93DF93DE
S1130210E42FF52F419050804F925F92E42FF52FF9
S11302204DB65EB6419250820C94EE00E82FF92F41
S1130230419150814DBF5EBFE62FF72F0994000016
S1130240CF93CFB7F89480916703811127C0E2EE72
S1130250F0E08491EEECF0E09491E82FF0E0EE0F02
S1130260FF1FEA50FF4FA591B491EC91E92321F4CB
S113027061E08AE00E945F0761E08AE00E94230750
S11302808CB580618CBD8CB580648CBD61E08DE0E3
S11302900E94230761E08BE00E942307809167039B
S11302A08F5F80936703CFBFCF91089580E00E9452
S11302B05D0A80916B0381111EC080916903909146
S11302C06A03892B39F48DB79EB790936A038093A0
S11302D0690308952091690330916A038DB79EB72D
S11302E02817390741F081E080936B0361E0809126
S11302F000010C945F07089561E0809100010E9461
S1130300230726E040E052EC61E070E081E993E0ED
S11303100E94640841E060E18CE693E00E94B50429
S1130320882399F068E271E081E993E00E949E09D4
S113033061E471E081E993E00E949E0964E670E063
S113034080E090E00E948306E5CF6CE571E081E9EE
S113035093E00C949E090E9456018CEC97E0892B43
S113036011F00C94CC0708950E94BF060E947C01F2
S113037080E00E94240A80E090E008956AE08CE620
S113038093E00C94AD0420916603222399F04FB7B7
S1130390F89420916603213059F42DB3209364031B
S11303A03DB320916503209523232DBB4FBF02C08D
S11303B0409364038CBD9DBD08958EBD00000DB4B3
S11303C007FEFDCF8EB5089580916603882361F002
S11303D09FB7F8942091660380916403213019F447
S11303E08DBB9FBF08958FBF0895CF93DF93EC011A
S11303F080E591E00E94C30160E08E810E945F0766
S113040080EC0E94DD0161E08E810E945F070E9402
S1130410E4016AE070E080E090E0DF91CF910C9419
S113042083061F93CF93DF93EC01162F80E591E0B1
S11304300E94C30160E08E810E945F0783E00E94F6
S1130440DD01812F0E94DD0180E00E94DD01182F73
S113045061E08E810E945F070E94E401812FDF9199
S1130460CF911F910895EF92FF921F93CF93DF9343
S11304701F92CDB7DEB77C01162F80E591E049834A
S11304800E94C30160E0F70186810E945F0782E059
S11304900E94DD01812F0E94DD014981842F0E9489
S11304A0DD0161E0F70186810E945F070F90DF9113
S11304B0CF911F91FF90EF900C94E401EF92FF9283
S11304C01F93CF93DF9300D0CDB7DEB77C01162FF7
S11304D080E591E02A8349830E94C30160E0F7012B
S11304E086810E945F0785E00E94DD01812F0E94C2
S11304F0DD014981842F0E94DD012A81822F0E941F
S1130500DD0161E0F70186810E945F070F900F9083
S1130510DF91CF911F91FF90EF900C94E4011F9312
S1130520CF93DF93EC0180E591E00E94C30160E08A
S11305308E810E945F0780EA0E94DD0180E00E94B4
S1130540DD01182F61E08E810E945F070E94E401A3
S1130550812FDF91CF911F9108950F931F93CF9314
S11305608C01C62F262F40EE6FE00E945E026FE0E2
S1130570C8010E941102982F907E81E09C1301C053
S113058080E0CF911F910F9108950F931F93CF9304
S1130590DF93413021F0423009F43FC071C0462F4F
S11305A050E0FA013197E231F10508F069C0EC5CE2
S11305B0FF4F0C94110DC7E8DFEF6EC0C7E0DAEB14
S11305C067C0C5E8D1EF64C0C7E0DEEB49E065C0B1
S11305D0C7E8DFEF35C0C7E8DAEF32C0C7E8DFEFBE
S11305E036C0C7E0DEEB33C0C7E0DDEA30C0C7E8A1
S11305F0DAEF2DC0C6E8D0EF2AC0C7E8DAEF2EC084
S1130600C5E8D1EF41E449C0C6E8D0EF2EC0C4E04C
S1130610D0EA2BC0C2E8D0ED28C0462F50E0FA0142
S11306203197E231F10560F5EA5BFF4F0C94110D4F
S1130630C7E0DFEB2DC0C7E0DFEB02C0C4E0D4EAC3
S113064047E02BC0C7E0DFEB02C0C6E0D4EB43E0D9
S113065024C0C7E0DFEB02C0C6E0D4EB41E01DC01C
S1130660C5E0D1EBFBCFC6E0D4EB40E016C0C5E05B
S1130670D1EBFBCFC2E0D0E9F8CFC0E0D0E8F5CFB2
S113068081E01AC0C7E8DFEF4FE307C0C7E8DFEF38
S11306904FE003C0C7E0DFEB4FE18C016AE20E9448
S11306A033024D2F69E2C8010E9433024C2F68E2E5
S11306B0C8010E94330280E0DF91CF911F910F9116
S11306C008950F931F93CF938C01C0E340E06C2FE8
S11306D0C8010E94330260E16C0F40E0C8010E942F
S11306E0330260E26C0F40E0C8010E943302CF5F26
S11306F0CE3361F740E060E6C8010E94330240E077
S113070060E7C801CF911F910F910C943302EF92CF
S1130710FF920F931F93CF93DF931F92CDB7DEB752
S11307207C01062F49830E94F50160E8C7010E94FD
S1130730AD02182F4981882319F068EB71E037C0A6
S113074062ED71E081E993E049830E94980949814F
S1130750602FC7010E94C502882319F060EF71E081
S113076026C062E072E081E993E00E949809C70123
S11307700E94610343E06BE2C7010E94330224E05C
S113078044E660E6C7010E945E0220E040E660E7BE
S1130790C7010E945E0260E0C7010E94AD02182FEB
S11307A0882319F067E172E002C062E372E081E934
S11307B093E00E949809812F0F90DF91CF911F91B0
S11307C00F91FF90EF9008953F924F925F926F9236
S11307D07F928F929F92AF92BF92CF92DF92EF92CD
S11307E0FF920F931F93CF93DF9300D000D0CDB728
S11307F0DEB74C01562E5A01390160E0FC018681B6
S11308000E945F07852D0E94DD01CE0101962C0117
S1130810E4E03E2E380E80E00E94DD01F201819377
S11308202F013E12F8CF2C8123FB882780F9F80191
S113083080833A814981832F90E075E0959587956F
S11308407A95E1F7F8E04F9F800D911D1124092E50
S1130850000CAA0BBB0BF50180839183A283B383A5
S113086033FF38C080819181A281B38142E0880F37
S1130870991FAA1FBB1F4A95D1F73370830F911D8F
S1130880A11DB11D80839183A283B3838081918153
S1130890A281B381BA2FA92F982F88273B81830F78
S11308A0911DA11DB11D80839183A283B383808197
S11308B09181A281B381BA2FA92F982F8827820F03
S11308C0911DA11DB11D80839183A283B38381E017
S11308D0F301808380E00E94DD018F70F701808343
S11308E0560110E0F7018081181750F4183041F0D8
S11308F080E00E94DD01F50181935F011F5FF2CF6B
S113090061E0F40186810F900F900F900F90DF91BA
S1130910CF911F910F91FF90EF90DF90CF90BF90F8
S1130920AF909F908F907F906F905F904F903F908B
S11309300C945F07CF93DF93EC01662359F0862F65
S11309406E8361E00E94230761E08E81DF91CF9185
S11309500C945F07DF91CF910895FC01118628E67E
S113096033E0308727830C949A04CF93DF9300D02D
S113097000D0CDB7DEB74C836B8389839A830E9402
S113098020014C816B8189819A810E94870391E0C7
S1130990811101C090E0892F0F900F900F900F905C
S11309A0DF91CF9108956F927F928F929F92AF9231
S11309B0BF92CF92DF92EF92FF920F931F93CF9348
S11309C0DF93EC015A014901380160FF02C060E97C
S11309D003C061FF15C064E9CE010E94E403F30182
S11309E080818D83F40180818883F50180819181E8
S11309F0A281B38189839A83AB83BC8380E003C0E3
S1130A00F701108284E0DF91CF911F910F91FF9045
S1130A10EF90DF90CF90BF90AF909F908F907F909A
S1130A206F9008950E948F02982F9B7A83FD02C0D5
S1130A3030E001C034E085FD02C020E001C028E0C0
S1130A40892F881F8827881F8295807F9370932B16
S1130A50922B892B0895CF92DF92EF92FF920F93FE
S1130A601F93CF93DF93EC017B016A010E9412056F
S1130A708E010B5F1F4FAE014F5F5F4F9E01682FCA
S1130A80CE010E94D304DF91CF911F910F91FF906B
S1130A90EF90DF90CF9008950E948F02837011F43D
S1130AA084E0089583E00895FC016181728183816B
S1130AB094810895CF92DF92EF92FF920F931F9348
S1130AC0CF93DF93CDB7DEB729970FB6F894DEBF87
S1130AD00FBECDBF809182039091830301969093C2
S1130AE08303809382031986809182039091830308
S1130AF0883E934008F44CC0109283031092820302
S1130B0088E793E00E944C05833009F041C08E01D0
S1130B100F5F1F4FA801BE01675F7F4F88E793E017
S1130B200E942B0588E793E00E9454056B017C0129
S1130B3069E073E081E993E00E949E0967E273E053
S1130B4081E993E00E94980940E150E0B60181E90F
S1130B5093E00E940D0A7801898590E09701201B9B
S1130B60310B2817390784F4F70161917F0140E1C3
S1130B7050E081E993E00E94060A6AE373E081E9A8
S1130B8093E00E949809E8CF81E993E00E949A09D2
S1130B9080918603909187030196909387038093B5
S1130BA086030E94850A29960FB6F894DEBF0FBE0D
S1130BB0CDBFDF91CF911F910F91FF90EF90DF9008
S1130BC0CF9008956AE088E793E00C94AD04CF9346
S1130BD0DF9349E050E06CE373E081E993E00E9425
S1130BE05809C0E0D1E061E088810E945F0768EEA7
S1130BF073E080E090E00E94830660E088810E94B8
S1130C005F0768EE73E080E090E00E9483068091C5
S1130C1084039091850301969093850380938403C4
S1130C20DF91CF910C94850A1F920F920FB60F9209
S1130C3011242F933F938F939F93AF93BF938091EE
S1130C40890390918A03A0918B03B0918C03309116
S1130C50880323E0230F2D3720F40196A11DB11D35
S1130C6005C026E8230F0296A11DB11D2093880319
S1130C708093890390938A03A0938B03B0938C038E
S1130C8080918D0390918E03A0918F03B091900376
S1130C900196A11DB11D80938D0390938E03A093A3
S1130CA08F03B0939003BF91AF919F918F913F9128
S1130CB02F910F900FBE0F901F9018953FB7F89487
S1130CC080918D0390918E03A0918F03B091900336
S1130CD026B5A89B05C02F3F19F00196A11DB11D93
S1130CE03FBFBA2FA92F982F8827820F911DA11DCE
S1130CF0B11DBC01CD0142E0660F771F881F991F0B
S1130D004A95D1F708958F929F92AF92BF92CF9256
S1130D10DF92EF92FF926B017C010E945E064B0111
S1130D205C01C114D104E104F10401F10E94230A1D
S1130D300E945E06DC01CB0188199909AA09BB0946
S1130D40883E9340A105B10560F321E0C21AD108A1
S1130D50E108F10888EE880E83E0981EA11CB11CFE
S1130D60C114D104E104F10419F7DBCFFF90EF9033
S1130D70DF90CF90BF90AF909F908F90089578941C
S1130D8084B5826084BD84B5816084BD85B582608C
S1130D9085BD85B5816085BDEEE6F0E0808181602A
S1130DA08083E1E8F0E0108280818260808380812A
S1130DB081608083E0E8F0E0808181608083E1EB02
S1130DC0F0E0808184608083E0EBF0E080818160EA
S1130DD08083EAE7F0E080818460808380818260A0
S1130DE08083808181608083808180688083109289
S1130DF0C1000895833081F028F4813099F0823065
S1130E00A1F008958730A9F08830B9F08430D1F486
S1130E10809180008F7D03C0809180008F778093C4
S1130E208000089584B58F7702C084B58F7D84BD1A
S1130E3008958091B0008F7703C08091B0008F7DBA
S1130E408093B0000895CF93DF9390E0FC01EC53BE
S1130E50FF4F2491FC01E852FF4F8491882361F1F4
S1130E6090E0880F991FFC01EA50FF4FC591D4917F
S1130E70FC01E451FF4FA591B491611109C09FB7E2
S1130E80F8948881209582238883EC912E230BC0CB
S1130E90623061F49FB7F8943881822F8095832360
S1130EA08883EC912E2B2C939FBF06C08FB7F894A8
S1130EB0E8812E2B28838FBFDF91CF9108951F9354
S1130EC0CF93DF93282F30E0F901E055FF4F849151
S1130ED0F901EC53FF4FD491F901E852FF4FC4914B
S1130EE0CC23C9F0162F81110E94FA06EC2FF0E0F2
S1130EF0EE0FFF1FE451FF4FA591B4918FB7F89403
S1130F00111105C09C91ED2FE095E92302C0EC91ED
S1130F10ED2BEC938FBFDF91CF911F910895FC01CE
S1130F20918D228D892F90E0805C9F4F821B9109C7
S1130F308F7399270895FC01918D828D981731F054
S1130F40828DE80FF11D858D90E008958FEF9FEF5E
S1130F500895FC01918D828D981761F0828DDF01D7
S1130F60A80FB11D5D968C91928D9F5F9F73928F98
S1130F7090E008958FEF9FEF0895FC01538D448D09
S1130F80252F30E0842F90E0821B930B541710F030
S1130F90CF9608950197089581E299E0892B49F04D
S1130FA080E090E0892B29F00E94210981110C94A2
S1130FB000000895FC01848DDF01A80FB11DA35A20
S1130FC0BF4F2C91848D90E001968F739927848F65
S1130FD0A689B7892C93A089B1898C9180648C935C
S1130FE0938D848D981306C00288F389E02D808147
S1130FF08F7D80830895CF93DF93EC01888D8823C0
S1131000C9F0EA89FB89808185FD05C0A889B98971
S11310108C9186FD0FC00FB607FCF5CF808185FF4C
S1131020F2CFA889B9898C9185FFEDCFCE010E94BA
S1131030DA07E7CFDF91CF910895EF92FF920F93F4
S11310401F93CF93DF93EC0181E0888F9B8D8C8D70
S1131050981305C0E889F989808185FD24C0F62E9E
S11310600B8D10E00F5F1F4F0F731127E02E8C8D37
S1131070E8120CC00FB607FCFACFE889F989808121
S113108085FFF5CFCE010E94DA07F1CF8B8DFE01EB
S1131090E80FF11DE35AFF4FF0820B8FEA89FB89B9
S11310A08081806207C0EE89FF896083E889F989BD
S11310B080818064808381E090E0DF91CF911F91F3
S11310C00F91FF90EF900895CF92DF92EF92FF92ED
S11310D01F93CF93DF93EC016A017B01122FE88900
S11310E0F98982E080834115514E61057105B1F0A3
S11310F060E079E08DE390E0A70196010E94EF0C97
S1131100DA01C9010197A109B109B695A795979587
S11311108795AC01411580E15807A8F0E889F98961
S1131120108260E874E88EE190E0A70196010E94C5
S1131130EF0CBA01A9014150510961097109769571
S1131140679557954795EC85FD855083EE85FF851A
S11311504083188EEC89FD891083EA89FB8980819C
S113116080618083EA89FB89808188608083EA8941
S1131170FB89808180688083EA89FB8980818F7DF7
S11311808083DF91CF911F91FF90EF90DF90CF90FC
S113119008951F920F920FB60F9211242F938F93DD
S11311A09F93EF93FF93E091A103F091A2038081B9
S11311B0E091A703F091A80382FD12C09081809171
S11311C0AA038F5F8F732091AB03821751F0E091D4
S11311D0AA03F0E0EF56FC4F958F8093AA0301C059
S11311E08081FF91EF919F918F912F910F900FBE6E
S11311F00F901F9018951F920F920FB60F92112403
S11312002F933F934F935F936F937F938F939F930A
S1131210AF93BF93EF93FF9381E993E00E94DA07C2
S1131220FF91EF91BF91AF919F918F917F916F91BA
S11312305F914F913F912F910F900FBE0F901F9090
S1131240189581E993E00E948F0721E0892B09F426
S113125020E0822F0895E1E9F3E01382128288EE00
S113126093E0A0E0B0E084839583A683B7838AE407
S113127093E09183808385EC90E09587848784EC68
S113128090E09787868780EC90E0918B808B81EC4F
S113129090E0938B828B82EC90E0958B848B86EC30
S11312A090E0978B868B118E128E138E148E089578
S11312B0CF92DF92EF92FF920F931F93CF93DF931E
S11312C06C017A018B01C0E0D0E0CE15DF0589F016
S11312D0D8016D918D01D601ED91FC910190F081C1
S11312E0E02DC6010995892B11F47E0102C02196D7
S11312F0ECCFC701DF91CF911F910F91FF90EF9039
S1131300DF90CF9008956115710579F0FB0101908C
S11313100020E9F73197AF01461B570BDC01ED9133
S1131320FC910280F381E02D099480E090E008951F
S11313300C9483096DEE71E00C9483090F931F9351
S1131340CF93DF93EC010E9483098C01CE010E94AC
S11313509A09800F911FDF91CF911F910F910895EA
S11313604F925F926F927F92EF92FF920F931F932F
S1131370CF93DF93CDB7DEB7A1970FB6F894DEBF56
S11313800FBECDBF7C01FA01CB0119A2223008F4B3
S11313902AE08E010F5D1F4F422E512C612C712CBF
S11313A0BF01A30192010E94EF0CF901CA0101508F
S11313B011096A3014F4605D01C0695CD8016C9352
S11313C0232B242B252B61F7B801C7010E94830925
S11313D0A1960FB6F894DEBF0FBECDBFDF91CF91BB
S11313E01F910F91FF90EF907F906F905F904F90BF
S11313F008952115310541F4DC01ED91FC91019032
S1131400F081E02D642F09940C94B0099A01462FC1
S113141050E060E070E00C94F9090F931F93CF93B0
S1131420DF93EC019A01AB0160E070E00E94F909DE
S11314308C01CE010E949A09800F911FDF91CF91F8
S11314401F910F91089508950F931F93CF93DF93E6
S113145000D0CDB7DEB700917E0110917F019FB718
S1131460F894F80120853185232BE9F4282F80E1B5
S11314709CE09A83898380918201909183012287E1
S113148022E030E031872087FC0162817381AB0167
S11314900E94F600F80180859185029709F47894FA
S11314A080E090E003C09FBF81E090E00F900F9038
S11314B0DF91CF911F910F910895CF9390E02091E8
S11314C07A0130917B0182179307D8F4E091760179
S11314D0F0917701880F991FE80FF91F408151811E
S11314E0FA0187819085029760F4CFB7F89421E0E0
S11314F030E06EE771E084E791E00E94DF0ACFBF3D
S113150002C083E090E0CF910895E0917E01F091D4
S11315107F010190F081E02D8FB7F89464E97AE0BF
S1131520828193810E941601CF93DF9300D0CDB7BF
S1131530DEB7AE014F5F5F4F6EE771E084E791E085
S11315400E94460BBC0189819A810E94DC0B0F909A
S11315500F90DF91CF9108950895EC01EC81FD8106
S113156081818F3F09F07894E985FA8509958FB7D1
S1131570F89464E97AE08A819B810E9416010F93B2
S11315801F93CF93DF93C0918001D091810100918B
S11315907E0110917F01F80180859185029729F4DD
S11315A02097F1F3FE010995F6CF80918201909185
S11315B08301DF91CF911F910F910C94F30BEF9264
S11315C0FF920F931F93CF93DF93DA011496ED905C
S11315D0FC901597E70198811D968C91981708F057
S11315E04CC0FB010190F081E02D00811181D801F4
S11315F014966D917C9115979F5F9883A481B58112
S1131600232B11F1EB019981E70189819817E0F40B
S11316108D919C9111979583848382E090E0EB01F6
S11316209B838A8313965C934E931297868197814A
S113163011969C938E93B783A68351834083BA01FA
S1131640C8010E94C00B16C0E7018A819B81892BC7
S113165021F481E090E09B838A838D919C91119782
S11316609583848311961C921E92BD01CF0102962C
S11316700E94BE0C80E090E002C084E090E0DF9124
S1131680CF911F910F91FF90EF900895AF92BF9269
S1131690CF92DF92EF92FF920F931F93CF93DF933A
S11316A05B01DB01CD91DC91FE01019111917F0180
S11316B0D8011496CD90DC901597FA01118300831C
S11316C0D60112968D919C911397049759F5B70101
S11316D0C5010E94C50CAC018881998108171907BE
S11316E0A9F0D8011496ED91FC9115971B962C91B5
S11316F02183208121502083211103C0138212826F
S113170009C021E030E03383228304C0F601208144
S1131710215020832C813D81DA012D933C935D83FC
S11317204C8323C06E817F81FB01808191819F83E3
S11317308E83D8011B968C91F601818381E090E021
S113174093838283A801C7010E94BE0CB701C5011F
S11317500E94120C892B39F4EE81FF8182819381DE
S11317609983888302C088819981DF91CF911F91E9
S11317700F91FF90EF90DF90CF90BF90AF900895BE
S1131780FB01A481B58112962D913C91139744E0FD
S113179050E013965C934E931297DC0112964D9190
S11317A05C91139762817381CF012230310511F46A
S11317B00C94AE000C94F600CB01DB011496ED9171
S11317C0FC9115972281338144E050E05383428396
S11317D012966D917C9113972230310511F40C947B
S11317E0CE000C94EE00DC0112966D917C9113975F
S11317F0ED91FC9140815181DB01ED91FC912289B5
S113180033892115310529F4DB01ED93FC930C9404
S1131810CE0024173507C1F3F901F1CFF894FFCFB7
S1131820ECE108950F931F93CF93DF93EC01A8810C
S1131830B981EB01E881F9811696CD91DC91179776
S11318402097B1F08A819B813097E1F1EC010C8102
S11318501D8122813381E9014C815D81E801398157
S1131860EA012981321770F522E030E0E8010BC06B
S1131870309741F1EC018C819D81EC014C815D81BB
S113188022E030E0EA013B832A8320813181EB01AD
S113189039832883C281D3814C815D8116962D9131
S11318A03C911797318320831796FC93EE931697F8
S11318B0CD93DC932C85FA013181321728F4FA0197
S11318C0218302C080E090E0DF91CF911F910F91BE
S11318D00895CF92DF92EF92FF920F931F93CF93CD
S11318E0DF93EB01AA81BB811496ED91FC911597CE
S11318F04115510541F0228133812230310518F020
S11319001B962C9101C02181DC01ED91FC91A0E09A
S1131910B0E03097D9F002811381E801CC80DD80FA
S11319204115510551F0E601EA80FB80D2E0ED1645
S1131930F10418F0E8013B8502C0E6013981321751
S113194028F0DF010190F081E02DE3CF109729F01A
S11319506D937C9380E090E005C0DC016D937C93F3
S113196081E090E0EB01F983E883DF91CF911F914F
S11319700F91FF90EF90DF90CF900895FB01538378
S1131980428341E050E00C94690CEF92FF920F9374
S11319901F93CF93DF938C01FC01C081D181EE8032
S11319A0FF80F701808191819F838E83C8010E940B
S11319B0120CEE81FF81892B51F4309719F082814A
S11319C0938103C0F8018481958199838883C70139
S11319D0DF91CF911F910F91FF90EF900895A1E2B5
S11319E01A2EAA1BBB1BFD010DC0AA1FBB1FEE1F95
S11319F0FF1FA217B307E407F50720F0A21BB30BE0
S1131A00E40BF50B661F771F881F991F1A9469F75B
S1131A1060957095809590959B01AC01BD01CF01B7
S1131A200895EE0FFF1F0590F491E02D0994F894AA
S1051A30FFCFE2
S1131A320D00A6010000140100000000FF000000D8
S1131A420000000018010000000000000001000076
S1131A52000200000100040043414E20425553207D
S1131A62536869656C6420696E6974206661696C87
S1131A720020496E69742043414E2042555320533D
S1131A826869656C6420616761696E0043414E2038
S1131A9242555320536869656C6420696E697420E9
S1131AA26F6B21002E048401140103000200020161
S1131AB2AB01A6018A019801A601B40176031C01B7
S1131AC20000005A05010101B4017603200101005E
S1131AD200E705020201B40176032401020300BFF8
S1131AE20A0000010000FFFF456E746572207365F1
S1131AF27474696E67206D6F6465206661696C0D2C
S1131B020A00456E7465722073657474696E672089
S1131B126D6F64652073756363657373200D0A00CA
S1131B2273657420726174652066616C6C21210D89
S1131B320A0073657420726174652073756363654A
S1131B42737321210D0A00456E746572204E6F7203
S1131B526D616C204D6F6465204661696C21210DB5
S1131B620A00456E746572204E6F726D616C204D71
S1131B726F6465205375636365737321210D0A00D5
S1131B82426567696E20746F20736574204D6173BA
S1131B926B21210D0A00456E74657220736574749D
S1131BA2696E67206D6F64652066616C6C0D0A0056
S1131BB2456E746572206E6F726D616C206D6F6418
S1131BC2652066616C6C0D0A00736574204D617347
S1131BD26B207375636365737321210D0A0042657B
S1131BE267696E20746F207365742046696C74652E
S1131BF27221210D0A00456E746572206E6F726D3A
S1131C02616C206D6F64652066616C6C0D0A5365AE
S1131C12742066696C746572206661696C21210D99
S1131C220A007365742046696C7465722073756367
S1131C326365737321210D0A002D2D2D2D2D2D2D5C
S1131C422D2D2D2D2D2D2D2D2D2D2D2D2D2D2D2DBE
S1131C522D2D2D2D2D2D0047657420646174612076
S1131C6266726F6D2049443A200009005441534B77
S1131C722D4C320D0A00000000001D085809BD0752
S1131C82FB078F07A9079B076E616E00696E6600EA
S1071C926F766600FF
S9030000FC
